{
  "_format": "hh-sol-artifact-1",
  "contractName": "EtherAndTokenSender",
  "sourceName": "contracts/EtherAndTokenSender.sol",
  "abi": [
    {
      "anonymous": false,
      "inputs": [
        {
          "indexed": true,
          "internalType": "address",
          "name": "from",
          "type": "address"
        },
        {
          "indexed": true,
          "internalType": "address",
          "name": "to",
          "type": "address"
        },
        {
          "indexed": false,
          "internalType": "uint256",
          "name": "amount",
          "type": "uint256"
        }
      ],
      "name": "EtherSent",
      "type": "event"
    },
    {
      "anonymous": false,
      "inputs": [
        {
          "indexed": true,
          "internalType": "address",
          "name": "from",
          "type": "address"
        },
        {
          "indexed": true,
          "internalType": "address",
          "name": "to",
          "type": "address"
        },
        {
          "indexed": false,
          "internalType": "uint256",
          "name": "amount",
          "type": "uint256"
        },
        {
          "indexed": false,
          "internalType": "address",
          "name": "token",
          "type": "address"
        }
      ],
      "name": "TokenSent",
      "type": "event"
    },
    {
      "inputs": [],
      "name": "getEtherBalance",
      "outputs": [
        {
          "internalType": "uint256",
          "name": "",
          "type": "uint256"
        }
      ],
      "stateMutability": "view",
      "type": "function"
    },
    {
      "inputs": [
        {
          "internalType": "address",
          "name": "_token",
          "type": "address"
        }
      ],
      "name": "getTokenBalance",
      "outputs": [
        {
          "internalType": "uint256",
          "name": "",
          "type": "uint256"
        }
      ],
      "stateMutability": "view",
      "type": "function"
    },
    {
      "inputs": [
        {
          "internalType": "address payable",
          "name": "_to",
          "type": "address"
        }
      ],
      "name": "sendEther",
      "outputs": [],
      "stateMutability": "payable",
      "type": "function"
    },
    {
      "inputs": [
        {
          "internalType": "address",
          "name": "_token",
          "type": "address"
        },
        {
          "internalType": "address",
          "name": "_to",
          "type": "address"
        },
        {
          "internalType": "uint256",
          "name": "_amount",
          "type": "uint256"
        }
      ],
      "name": "sendTokens",
      "outputs": [],
      "stateMutability": "nonpayable",
      "type": "function"
    },
    {
      "stateMutability": "payable",
      "type": "receive"
    }
  ],
  "bytecode": "0x6080604052348015600f57600080fd5b50610c058061001f6000396000f3fe6080604052600436106100435760003560e01c80633aecd0e31461004f57806348c981e21461008c578063e6d66ac8146100a8578063ea46193e146100d15761004a565b3661004a57005b600080fd5b34801561005b57600080fd5b5061007660048036038101906100719190610608565b6100fc565b604051610083919061064e565b60405180910390f35b6100a660048036038101906100a191906106a7565b610184565b005b3480156100b457600080fd5b506100cf60048036038101906100ca9190610700565b61034b565b005b3480156100dd57600080fd5b506100e661059d565b6040516100f3919061064e565b60405180910390f35b6000808290508073ffffffffffffffffffffffffffffffffffffffff166370a08231306040518263ffffffff1660e01b815260040161013b9190610762565b602060405180830381865afa158015610158573d6000803e3d6000fd5b505050506040513d601f19601f8201168201806040525081019061017c9190610792565b915050919050565b600034116101c7576040517f08c379a00000000000000000000000000000000000000000000000000000000081526004016101be9061081c565b60405180910390fd5b600073ffffffffffffffffffffffffffffffffffffffff168173ffffffffffffffffffffffffffffffffffffffff1603610236576040517f08c379a000000000000000000000000000000000000000000000000000000000815260040161022d90610888565b60405180910390fd5b60008173ffffffffffffffffffffffffffffffffffffffff163460405161025c906108d9565b60006040518083038185875af1925050503d8060008114610299576040519150601f19603f3d011682016040523d82523d6000602084013e61029e565b606091505b50509050806102e2576040517f08c379a00000000000000000000000000000000000000000000000000000000081526004016102d99061093a565b60405180910390fd5b8173ffffffffffffffffffffffffffffffffffffffff163373ffffffffffffffffffffffffffffffffffffffff167f10d1a5dc650a65cd6625a330078a13ee62c6ec85b36e94bdf57e4d3188ca67383460405161033f919061064e565b60405180910390a35050565b600073ffffffffffffffffffffffffffffffffffffffff168373ffffffffffffffffffffffffffffffffffffffff16036103ba576040517f08c379a00000000000000000000000000000000000000000000000000000000081526004016103b1906109a6565b60405180910390fd5b600073ffffffffffffffffffffffffffffffffffffffff168273ffffffffffffffffffffffffffffffffffffffff1603610429576040517f08c379a000000000000000000000000000000000000000000000000000000000815260040161042090610a12565b60405180910390fd5b6000811161046c576040517f08c379a000000000000000000000000000000000000000000000000000000000815260040161046390610a7e565b60405180910390fd5b60008390508073ffffffffffffffffffffffffffffffffffffffff166323b872dd3385856040518463ffffffff1660e01b81526004016104ae93929190610a9e565b6020604051808303816000875af11580156104cd573d6000803e3d6000fd5b505050506040513d601f19601f820116820180604052508101906104f19190610b0d565b610530576040517f08c379a000000000000000000000000000000000000000000000000000000000815260040161052790610b86565b60405180910390fd5b8273ffffffffffffffffffffffffffffffffffffffff163373ffffffffffffffffffffffffffffffffffffffff167ff065c3e1d5f706b2cad5533ecbd2bed3b38d4e4bb0f6b7077f23d305dd9d171d848760405161058f929190610ba6565b60405180910390a350505050565b600047905090565b600080fd5b600073ffffffffffffffffffffffffffffffffffffffff82169050919050565b60006105d5826105aa565b9050919050565b6105e5816105ca565b81146105f057600080fd5b50565b600081359050610602816105dc565b92915050565b60006020828403121561061e5761061d6105a5565b5b600061062c848285016105f3565b91505092915050565b6000819050919050565b61064881610635565b82525050565b6000602082019050610663600083018461063f565b92915050565b6000610674826105aa565b9050919050565b61068481610669565b811461068f57600080fd5b50565b6000813590506106a18161067b565b92915050565b6000602082840312156106bd576106bc6105a5565b5b60006106cb84828501610692565b91505092915050565b6106dd81610635565b81146106e857600080fd5b50565b6000813590506106fa816106d4565b92915050565b600080600060608486031215610719576107186105a5565b5b6000610727868287016105f3565b9350506020610738868287016105f3565b9250506040610749868287016106eb565b9150509250925092565b61075c816105ca565b82525050565b60006020820190506107776000830184610753565b92915050565b60008151905061078c816106d4565b92915050565b6000602082840312156107a8576107a76105a5565b5b60006107b68482850161077d565b91505092915050565b600082825260208201905092915050565b7f4d7573742073656e6420736f6d65204574686572000000000000000000000000600082015250565b60006108066014836107bf565b9150610811826107d0565b602082019050919050565b60006020820190508181036000830152610835816107f9565b9050919050565b7f496e76616c696420616464726573730000000000000000000000000000000000600082015250565b6000610872600f836107bf565b915061087d8261083c565b602082019050919050565b600060208201905081810360008301526108a181610865565b9050919050565b600081905092915050565b50565b60006108c36000836108a8565b91506108ce826108b3565b600082019050919050565b60006108e4826108b6565b9150819050919050565b7f4661696c656420746f2073656e64204574686572000000000000000000000000600082015250565b60006109246014836107bf565b915061092f826108ee565b602082019050919050565b6000602082019050818103600083015261095381610917565b9050919050565b7f496e76616c696420746f6b656e20616464726573730000000000000000000000600082015250565b60006109906015836107bf565b915061099b8261095a565b602082019050919050565b600060208201905081810360008301526109bf81610983565b9050919050565b7f496e76616c696420726563697069656e74206164647265737300000000000000600082015250565b60006109fc6019836107bf565b9150610a07826109c6565b602082019050919050565b60006020820190508181036000830152610a2b816109ef565b9050919050565b7f416d6f756e74206d7573742062652067726561746572207468616e207a65726f600082015250565b6000610a686020836107bf565b9150610a7382610a32565b602082019050919050565b60006020820190508181036000830152610a9781610a5b565b9050919050565b6000606082019050610ab36000830186610753565b610ac06020830185610753565b610acd604083018461063f565b949350505050565b60008115159050919050565b610aea81610ad5565b8114610af557600080fd5b50565b600081519050610b0781610ae1565b92915050565b600060208284031215610b2357610b226105a5565b5b6000610b3184828501610af8565b91505092915050565b7f546f6b656e207472616e73666572206661696c65640000000000000000000000600082015250565b6000610b706015836107bf565b9150610b7b82610b3a565b602082019050919050565b60006020820190508181036000830152610b9f81610b63565b9050919050565b6000604082019050610bbb600083018561063f565b610bc86020830184610753565b939250505056fea2646970667358221220018a79a4c25c43cbfba2894228233bd29aadc3c0a031248bf2a25721fa160cec64736f6c634300081b0033",
  "linkReferences": {},
  "deployedLinkReferences": {}
}