{
    "_format": "hh-sol-artifact-1",
    "contractName": "EtherSender",
    "sourceName": "contracts/EtherSender.sol",
    "abi": [
        {
            "anonymous": false,
            "inputs": [
                {
                    "indexed": true,
                    "internalType": "address",
                    "name": "from",
                    "type": "address"
                },
                {
                    "indexed": true,
                    "internalType": "address",
                    "name": "to",
                    "type": "address"
                },
                {
                    "indexed": false,
                    "internalType": "uint256",
                    "name": "amount",
                    "type": "uint256"
                }
            ],
            "name": "EtherSent",
            "type": "event"
        },
        {
            "inputs": [],
            "name": "getBalance",
            "outputs": [
                {
                    "internalType": "uint256",
                    "name": "",
                    "type": "uint256"
                }
            ],
            "stateMutability": "view",
            "type": "function"
        },
        {
            "inputs": [
                {
                    "internalType": "address payable",
                    "name": "_to",
                    "type": "address"
                }
            ],
            "name": "sendEther",
            "outputs": [],
            "stateMutability": "payable",
            "type": "function"
        },
        {
            "stateMutability": "payable",
            "type": "receive"
        }
    ],
    "bytecode": "0x6080604052348015600f57600080fd5b506102468061001f6000396000f3fe60806040526004361061002d5760003560e01c806312065fe01461003957806348c981e21461005957600080fd5b3661003457005b600080fd5b34801561004557600080fd5b504760405190815260200160405180910390f35b61006c6100673660046101e0565b61006e565b005b600034116100ba5760405162461bcd60e51b815260206004820152601460248201527326bab9ba1039b2b7321039b7b6b29022ba3432b960611b60448201526064015b60405180910390fd5b6001600160a01b0381166101025760405162461bcd60e51b815260206004820152600f60248201526e496e76616c6964206164647265737360881b60448201526064016100b1565b6000816001600160a01b03163460405160006040518083038185875af1925050503d806000811461014f576040519150601f19603f3d011682016040523d82523d6000602084013e610154565b606091505b505090508061019c5760405162461bcd60e51b81526020600482015260146024820152732330b4b632b2103a379039b2b7321022ba3432b960611b60448201526064016100b1565b6040513481526001600160a01b0383169033907f10d1a5dc650a65cd6625a330078a13ee62c6ec85b36e94bdf57e4d3188ca67389060200160405180910390a35050565b6000602082840312156101f257600080fd5b81356001600160a01b038116811461020957600080fd5b939250505056fea2646970667358221220d8acc007fa79965b18dfe59f81bbb2cccbf165435e8dfcdabddc7d04e521ca8e64736f6c634300081b0033",
    "linkReferences": {},
    "deployedLinkReferences": {}
}