{
    "_format": "hh-sol-artifact-1",
    "contractName": "MehdiTechnology",
    "sourceName": "contracts/MehdiTechnology.sol",
    "abi": [
        {
            "inputs": [],
            "stateMutability": "nonpayable",
            "type": "constructor"
        },
        {
            "inputs": [
                {
                    "internalType": "address",
                    "name": "spender",
                    "type": "address"
                },
                {
                    "internalType": "uint256",
                    "name": "allowance",
                    "type": "uint256"
                },
                {
                    "internalType": "uint256",
                    "name": "needed",
                    "type": "uint256"
                }
            ],
            "name": "ERC20InsufficientAllowance",
            "type": "error"
        },
        {
            "inputs": [
                {
                    "internalType": "address",
                    "name": "sender",
                    "type": "address"
                },
                {
                    "internalType": "uint256",
                    "name": "balance",
                    "type": "uint256"
                },
                {
                    "internalType": "uint256",
                    "name": "needed",
                    "type": "uint256"
                }
            ],
            "name": "ERC20InsufficientBalance",
            "type": "error"
        },
        {
            "inputs": [
                {
                    "internalType": "address",
                    "name": "approver",
                    "type": "address"
                }
            ],
            "name": "ERC20InvalidApprover",
            "type": "error"
        },
        {
            "inputs": [
                {
                    "internalType": "address",
                    "name": "receiver",
                    "type": "address"
                }
            ],
            "name": "ERC20InvalidReceiver",
            "type": "error"
        },
        {
            "inputs": [
                {
                    "internalType": "address",
                    "name": "sender",
                    "type": "address"
                }
            ],
            "name": "ERC20InvalidSender",
            "type": "error"
        },
        {
            "inputs": [
                {
                    "internalType": "address",
                    "name": "spender",
                    "type": "address"
                }
            ],
            "name": "ERC20InvalidSpender",
            "type": "error"
        },
        {
            "anonymous": false,
            "inputs": [
                {
                    "indexed": true,
                    "internalType": "address",
                    "name": "owner",
                    "type": "address"
                },
                {
                    "indexed": true,
                    "internalType": "address",
                    "name": "spender",
                    "type": "address"
                },
                {
                    "indexed": false,
                    "internalType": "uint256",
                    "name": "value",
                    "type": "uint256"
                }
            ],
            "name": "Approval",
            "type": "event"
        },
        {
            "anonymous": false,
            "inputs": [
                {
                    "indexed": true,
                    "internalType": "address",
                    "name": "from",
                    "type": "address"
                },
                {
                    "indexed": true,
                    "internalType": "address",
                    "name": "to",
                    "type": "address"
                },
                {
                    "indexed": false,
                    "internalType": "uint256",
                    "name": "value",
                    "type": "uint256"
                }
            ],
            "name": "Transfer",
            "type": "event"
        },
        {
            "inputs": [],
            "name": "INITIAL_SUPPLY",
            "outputs": [
                {
                    "internalType": "uint256",
                    "name": "",
                    "type": "uint256"
                }
            ],
            "stateMutability": "view",
            "type": "function"
        },
        {
            "inputs": [
                {
                    "internalType": "address",
                    "name": "owner",
                    "type": "address"
                },
                {
                    "internalType": "address",
                    "name": "spender",
                    "type": "address"
                }
            ],
            "name": "allowance",
            "outputs": [
                {
                    "internalType": "uint256",
                    "name": "",
                    "type": "uint256"
                }
            ],
            "stateMutability": "view",
            "type": "function"
        },
        {
            "inputs": [
                {
                    "internalType": "address",
                    "name": "spender",
                    "type": "address"
                },
                {
                    "internalType": "uint256",
                    "name": "value",
                    "type": "uint256"
                }
            ],
            "name": "approve",
            "outputs": [
                {
                    "internalType": "bool",
                    "name": "",
                    "type": "bool"
                }
            ],
            "stateMutability": "nonpayable",
            "type": "function"
        },
        {
            "inputs": [
                {
                    "internalType": "address",
                    "name": "account",
                    "type": "address"
                }
            ],
            "name": "balanceOf",
            "outputs": [
                {
                    "internalType": "uint256",
                    "name": "",
                    "type": "uint256"
                }
            ],
            "stateMutability": "view",
            "type": "function"
        },
        {
            "inputs": [],
            "name": "decimals",
            "outputs": [
                {
                    "internalType": "uint8",
                    "name": "",
                    "type": "uint8"
                }
            ],
            "stateMutability": "view",
            "type": "function"
        },
        {
            "inputs": [],
            "name": "name",
            "outputs": [
                {
                    "internalType": "string",
                    "name": "",
                    "type": "string"
                }
            ],
            "stateMutability": "view",
            "type": "function"
        },
        {
            "inputs": [],
            "name": "symbol",
            "outputs": [
                {
                    "internalType": "string",
                    "name": "",
                    "type": "string"
                }
            ],
            "stateMutability": "view",
            "type": "function"
        },
        {
            "inputs": [],
            "name": "totalSupply",
            "outputs": [
                {
                    "internalType": "uint256",
                    "name": "",
                    "type": "uint256"
                }
            ],
            "stateMutability": "view",
            "type": "function"
        },
        {
            "inputs": [
                {
                    "internalType": "address",
                    "name": "to",
                    "type": "address"
                },
                {
                    "internalType": "uint256",
                    "name": "value",
                    "type": "uint256"
                }
            ],
            "name": "transfer",
            "outputs": [
                {
                    "internalType": "bool",
                    "name": "",
                    "type": "bool"
                }
            ],
            "stateMutability": "nonpayable",
            "type": "function"
        },
        {
            "inputs": [
                {
                    "internalType": "address",
                    "name": "from",
                    "type": "address"
                },
                {
                    "internalType": "address",
                    "name": "to",
                    "type": "address"
                },
                {
                    "internalType": "uint256",
                    "name": "value",
                    "type": "uint256"
                }
            ],
            "name": "transferFrom",
            "outputs": [
                {
                    "internalType": "bool",
                    "name": "",
                    "type": "bool"
                }
            ],
            "stateMutability": "nonpayable",
            "type": "function"
        }
    ],
    "bytecode": "0x608060405234801561001057600080fd5b506040518060400160405280601081526020016f4d6568646920546563686e6f6c6f677960801b8152506040518060400160405280600381526020016213551560ea1b8152508160039081610065919061029d565b506004610072828261029d565b505050610090336a52b7d2dcc80cd2e400000061009560201b60201c565b610382565b6001600160a01b0382166100c45760405163ec442f0560e01b8152600060048201526024015b60405180910390fd5b6100d0600083836100d4565b5050565b6001600160a01b0383166100ff5780600260008282546100f4919061035b565b909155506101719050565b6001600160a01b038316600090815260208190526040902054818110156101525760405163391434e360e21b81526001600160a01b038516600482015260248101829052604481018390526064016100bb565b6001600160a01b03841660009081526020819052604090209082900390555b6001600160a01b03821661018d576002805482900390556101ac565b6001600160a01b03821660009081526020819052604090208054820190555b816001600160a01b0316836001600160a01b03167fddf252ad1be2c89b69c2b068fc378daa952ba7f163c4a11628f55a4df523b3ef836040516101f191815260200190565b60405180910390a3505050565b634e487b7160e01b600052604160045260246000fd5b600181811c9082168061022857607f821691505b60208210810361024857634e487b7160e01b600052602260045260246000fd5b50919050565b601f82111561029857806000526020600020601f840160051c810160208510156102755750805b601f840160051c820191505b818110156102955760008155600101610281565b50505b505050565b81516001600160401b038111156102b6576102b66101fe565b6102ca816102c48454610214565b8461024e565b6020601f8211600181146102fe57600083156102e65750848201515b600019600385901b1c1916600184901b178455610295565b600084815260208120601f198516915b8281101561032e578785015182556020948501946001909201910161030e565b508482101561034c5786840151600019600387901b60f8161c191681555b50505050600190811b01905550565b8082018082111561037c57634e487b7160e01b600052601160045260246000fd5b92915050565b61073e806103916000396000f3fe608060405234801561001057600080fd5b506004361061009e5760003560e01c8063313ce56711610066578063313ce5671461011b57806370a082311461012a57806395d89b4114610153578063a9059cbb1461015b578063dd62ed3e1461016e57600080fd5b806306fdde03146100a3578063095ea7b3146100c157806318160ddd146100e457806323b872dd146100f65780632ff2e9dc14610109575b600080fd5b6100ab6101a7565b6040516100b89190610587565b60405180910390f35b6100d46100cf3660046105f1565b610239565b60405190151581526020016100b8565b6002545b6040519081526020016100b8565b6100d461010436600461061b565b610253565b6100e86a52b7d2dcc80cd2e400000081565b604051601281526020016100b8565b6100e8610138366004610658565b6001600160a01b031660009081526020819052604090205490565b6100ab610277565b6100d46101693660046105f1565b610286565b6100e861017c36600461067a565b6001600160a01b03918216600090815260016020908152604080832093909416825291909152205490565b6060600380546101b6906106ad565b80601f01602080910402602001604051908101604052809291908181526020018280546101e2906106ad565b801561022f5780601f106102045761010080835404028352916020019161022f565b820191906000526020600020905b81548152906001019060200180831161021257829003601f168201915b5050505050905090565b600033610247818585610294565b60019150505b92915050565b6000336102618582856102a6565b61026c858585610329565b506001949350505050565b6060600480546101b6906106ad565b600033610247818585610329565b6102a18383836001610388565b505050565b6001600160a01b038381166000908152600160209081526040808320938616835292905220546000198114610323578181101561031457604051637dc7a0d960e11b81526001600160a01b038416600482015260248101829052604481018390526064015b60405180910390fd5b61032384848484036000610388565b50505050565b6001600160a01b03831661035357604051634b637e8f60e11b81526000600482015260240161030b565b6001600160a01b03821661037d5760405163ec442f0560e01b81526000600482015260240161030b565b6102a183838361045d565b6001600160a01b0384166103b25760405163e602df0560e01b81526000600482015260240161030b565b6001600160a01b0383166103dc57604051634a1406b160e11b81526000600482015260240161030b565b6001600160a01b038085166000908152600160209081526040808320938716835292905220829055801561032357826001600160a01b0316846001600160a01b03167f8c5be1e5ebec7d5bd14f71427d1e84f3dd0314c0f7b2291e5b200ac8c7c3b9258460405161044f91815260200190565b60405180910390a350505050565b6001600160a01b03831661048857806002600082825461047d91906106e7565b909155506104fa9050565b6001600160a01b038316600090815260208190526040902054818110156104db5760405163391434e360e21b81526001600160a01b0385166004820152602481018290526044810183905260640161030b565b6001600160a01b03841660009081526020819052604090209082900390555b6001600160a01b03821661051657600280548290039055610535565b6001600160a01b03821660009081526020819052604090208054820190555b816001600160a01b0316836001600160a01b03167fddf252ad1be2c89b69c2b068fc378daa952ba7f163c4a11628f55a4df523b3ef8360405161057a91815260200190565b60405180910390a3505050565b602081526000825180602084015260005b818110156105b55760208186018101516040868401015201610598565b506000604082850101526040601f19601f83011684010191505092915050565b80356001600160a01b03811681146105ec57600080fd5b919050565b6000806040838503121561060457600080fd5b61060d836105d5565b946020939093013593505050565b60008060006060848603121561063057600080fd5b610639846105d5565b9250610647602085016105d5565b929592945050506040919091013590565b60006020828403121561066a57600080fd5b610673826105d5565b9392505050565b6000806040838503121561068d57600080fd5b610696836105d5565b91506106a4602084016105d5565b90509250929050565b600181811c908216806106c157607f821691505b6020821081036106e157634e487b7160e01b600052602260045260246000fd5b50919050565b8082018082111561024d57634e487b7160e01b600052601160045260246000fdfea26469706673582212200e1124dfe997684142fc6ae879f39db880c1d4b897ac64ecb36a55df46d737ce64736f6c634300081b0033",
    "linkReferences": {},
    "deployedLinkReferences": {}
}